:04000000B6EF1FF048
:103F6C000001D4EF1FF00C0EBB6E1C0EBA6E1200CB
:103F7C00000E056E000E046E000E056E000E046E33
:103F8C0002D0044A052A0150045C0550800A036ED5
:103F9C000250800A0358D8B01200F3D7000E926E6C
:103FAC00000E936E000E946E95683E0ED36E9B0EB3
:103FBC00CB6E060ECA6E2F0E6F6E000E7F6EC40E89
:103FCC007B6E090E7A6EC40E7D6E090E7C6E800EB1
:103FDC007E6EB9EC1FF080920F0E026EA00E016E79
:103FEC00BEEC1FF080820F0E026EA00E016EBEECB6
:043FFC001FF0F1D7EA
:020000040020DA
:08000000FFFFFFFFFFFFFFFF00
:020000040030CA
:0E000000FFC8033E3C9D85FF0FC00FE00F4080
:00000001FF
