:0400000042EF05F0D6
:100300000001000A006400E803102701001000004B
:1003100001001072656164696E6720454550524F57
:100320004D2076616C7565730A006368616E676560
:1003300020746F2064656661756C74206D6F6465F0
:1003400000476F696E6720746F2044656661756C45
:1003500074204D6F646500656E746572696E672008
:1003600074657374206D6F646500656E7465726981
:100370006E6720736574206D6F64650030313233B1
:1003800034353637383961626364656600456E74AA
:1003900065722050574D2056616C75650077726903
:1003A00074696E672076616C75657300496E76615D
:1003B0006C696420646174612E0072656164696EA9
:1003C0006720646F6E6500307825782000623A25DA
:0303D000640000C6
:1003D400110E156E000E166EEFD0250E1B18D8B434
:1003E40009D00DC0D9FF0EC0DAFF1BC0DFFF0D4AD4
:1003F4000E2AE2D0000E186E02D0188E17D00FC04D
:10040400F6FF10C0F7FF0F4A102A0800F5CF1BF0C3
:100414001B50000AD8B4DCD0640AD8B407D00D0A43
:10042400D8B404D0110AD8B4E8D7C6D018BE15D0B1
:1004340015C0D9FF16C0DAFFDECF19F0DDCF1AF0F0
:10044400020E1526000E16221AAE44D0030E181200
:10045400196C1A1ED8B01A2A3DD015C0D9FF16C07F
:10046400DAFFDECF19F0DDCF1AF0020E1526000EEA
:10047400162230D0010E1B6E050E1B18D8B432D0D4
:100484001B50020D010EF324F66E030EF420F76EDA
:100494000900F550195C0900F5501A58D8A022D06B
:1004A4001B2AEAD7010E1B6E040E1B18D8B41AD0EF
:1004B4001B50020D0B0EF324F66E030EF420F76EA0
:1004C4000900F550195C0900F5501A58D8A00AD053
:1004D4001B2AEAD71850800B000AD8B4CBD7800A5D
:1004E400D8B4E0D718C013F0030E1316D8B408D04C
:1004F4000DC0D9FF0EC0DAFF2D0EDF6E0D4A0E2A95
:100504001BC017F055D01750020D010EF324F66EE0
:10051400030EF420F76E0900F5CF03F00A00F5CFBF
:1005240004F019C001F01AC002F0ADEC04F001C0EF
:1005340008F002C009F0000E0B6E0A0E0A6E21ECE0
:1005440005F00850300F1B6E2BD019C001F01AC0F3
:1005540002F01750020D0B0EF324F66E030EF42076
:10056400F76E0900F5CF03F00A00F5CF04F0ADEC07
:1005740004F001500F0B146E1450010D7C0EF32483
:10058400F66E030EF420F76E0800F5CF1BF008D0CA
:100594001850800B000AD8B4B6D7800AD8B4D5D77F
:1005A4000DC0D9FF0EC0DAFF1BC0DFFF0D4A0E2AB3
:1005B40017061728D8A4ECD70FC0F6FF10C0F7FF12
:1005C4000F4A102A0800F5CF1BF01B50D8A405D7FA
:1005D4000DC0D9FF0EC0DAFF000EDF6E1200010E4F
:1005E400B0EC05F0366E230E3618D8A41200000EB7
:1005F400236E000E226E23BE06D023500FE1080E98
:10060400225CD8B00BD02C0E2224D96E000E2320ED
:10061400DA6E000EDF6E224A232AEDD7000E236E17
:10062400000E226E000EB0EC05F0366E240E361865
:10063400D8B41200580E3618D8A409D02A0E076E62
:10064400030E086EBCEC03F0FE0E286E0BD0365081
:10065400D8B4E8D72C0E2224D96E000E2320DA6EEB
:1006640036C0DFFF23BE15D0235004E1080E225C00
:10067400D8A00FD0AC0E076E030E086EBCEC03F0CE
:100684002A0E076E030E086EBCEC03F0FE0E286EF5
:1006940002D0224A232A00F000F000F0230E026E5A
:1006A400280E016E73EC05F0BDD7010E1C6E010E11
:1006B4001D6E000E1F6E000E1E6EA69EA69C9D0E45
:1006C400076E030E086EBCEC03F0130E076E030EE8
:1006D400086EBCEC03F0230E026E280E016E73EC60
:1006E40005F0000E1F6E000E1E6E010E1D6E1FBE65
:1006F40006D01F5032E1FA0E1E5CD8B02ED01D5029
:10070400A5EC05F01C6E2C0E0D6E000E0E6EC70EC1
:100714000F6E030E106E20C011F021C012F0EAEC2F
:1007240001F02C0E076E000E086EBCEC03F0230ED5
:10073400026E280E016E73EC05F0230E026E280E75
:10074400016E73EC05F0230E026E280E016E73EC3D
:1007540005F01E4A1F2A1D2ACAD7280E076E030E4B
:10076400086EBCEC03F0BA0E076E030E086EBCEC08
:1007740003F01200000E0C6E000E0B6E000E0E6ED7
:10078400000E0D6E07C001F008C002F0D6EC04F0B4
:1007940001C00BF002C00CF0000E0E6E000E0D6EC8
:1007A40020D00D500724096E0E5008200A6E09C08F
:1007B400F6FF0AC0F7FFF86A020EF76403D00800D8
:1007C400F55005D0F6CFE9FFF7CFEAFFEF5099ECEB
:1007D40005F0000E026E640E016E73EC05F00D4A16
:1007E4000E2A0B500D5C0E50800A096E0C50800AC4
:1007F4000958D8A0D6D70A0E99EC05F0000E026E5F
:10080400640E016E73EC05F01200000E926E000E81
:10081400936E000E946E9568720ED36E9B0ECB6E23
:10082400060ECA6E2F0E6F6E000E7F6EC40E7B6EA8
:10083400090E7A6EC40E7D6E090E7C6E800E7E6E7D
:10084400000E016E000E026E120E036E7A0E046E1E
:10085400000E056E250E076E800E066E000E5CEC13
:1008640005F057EC03F0F1EC02F042EC04F089ECF3
:1008740005F0230E026E280E016E73EC05F0F3D71B
:10088400540E2C18D8A409D0570E076E030E086E08
:10089400BCEC03F0010E286E1200530E2C18D8A4E1
:1008A40011D0450E2D18D8A40DD0540E2E18D8A44E
:1008B40009D06A0E076E030E086EBCEC03F0020E3C
:1008C400286E1200460E2C18D8A411D0490E2D18EB
:1008D400D8A40DD04E0E2E18D8A409D0410E076E00
:1008E400030E086EBCEC03F0FE0E286E1200FE0E22
:1008F400286E12008D0E076E030E086EBCEC03F01A
:10090400230E026E280E016E73EC05F0F1EC02F07A
:10091400340E016E000E026E2C0E036E000E046E79
:10092400000E066E040E056EFFEC04F02C0E0D6E28
:10093400000E0E6ECD0E0F6E030E106E34C011F04D
:1009440035C012F0EAEC01F02C0E076E000E086EB2
:10095400BCEC03F01200000E066E000E056E035090
:100964000410D8B41CD0010E076E04D0D8900336FE
:100974000436072A04AEFAD7D89005360636035053
:10098400015C04500258D8A005D00350015E045005
:10099400025A0580D89004320332072EEDD705C0E1
:1009A40001F006C002F0120001C005F002C006F01A
:1009B40002D0054A062A05C0F6FF06C0F7FFF86A0A
:1009C400020EF76403D00800F55005D0F6CFE9FF16
:1009D400F7CFEAFFEF500009D8A4EBD701C003F02A
:1009E40002C004F0031E041E034A042A0550032413
:1009F400016E06500420026E120003C009F004C008
:100A04000AF001C007F002C008F010D009C0D9FFF5
:100A14000AC0DAFFDF500B6E094A0A2A07C0D9FF61
:100A240008C0DAFF0BC0DFFF074A082A0506D8A072
:100A340006060528EBE10628D8B41200E7D70A50C9
:100A44000B10D8B418D0010E0C6E04D0D8900A360E
:100A54000B360C2A0BAEFAD70A50085C0B50095817
:100A6400D8A004D00A50085E0B50095AD8900B3213
:100A74000A320C2EF1D708C008F009C009F01200A0
:100A84006C0EF66E0B0EF76E000EF86E0900F5CFC5
:100A940036F00900F5CF37F00900F5CF38F000EE55
:100AA40020F0160EEE6AE806FDE1000EF86E000175
:100AB40007EF04F0086E949C948E0AD0AA96000E58
:100AC400AA6E330EAF6E240EAC6E900EAB6E120097
:100AD4000850000AD8B4F2D7010AD8B41200030AA5
:100AE4001200000E056E000E046E000E056E000E60
:100AF400046E02D0044A052A0150045C0550800AA1
:100B0400036E0250800A0358D8B01200F3D703D002
:100B14007CEC04F005D02850010AD8B4F9D7030AB4
:100B24002750D8B402D08082120080921200066E40
:100B34009EA8FED706C0ADFF030E026EE80E016E3E
:100B440073EC05F01200016E01C0A9FFA69CA69EDD
:100B5400A680A8CF20F0216A010E12009EAAFED71B
:0B0B6400AECF26F0265012007A0501EB
:020000040020DA
:08000000FFFFFFFFFFFFFFFF00
:020000040030CA
:0E000000FFC8013E3C9D85FF0FC00FE00F4082
:00000001FF
