:040000004FEF04F0CA
:100300000001000A006400E80310276368616E675B
:100310006520746F2064656661756C74206D6F6410
:100320006500476F696E6720746F2044656661756C
:100330006C74204D6F646500656E746572696E67DC
:100340002074657374206D6F646500656E746572EA
:10035000696E6720736574206D6F646500456E7407
:1003600065722050574D2056616C756500496E7658
:10037000616C696420646174612E00623A256400D6
:01038000007C
:10038200110E146E000E156E8CD0250E1A18D8B4EC
:1003920009D00DC0D9FF0EC0DAFF1AC0DFFF0D4A27
:1003A2000E2A7FD0000E166E0FC0F6FF10C0F7FFA8
:1003B2000F4A102A0800F5CF1AF01A50000AD8B4D2
:1003C2007CD0640AD8B403D00D0AD8A46AD014C071
:1003D200D9FF15C0DAFFDECF18F0DDCF19F0020E1B
:1003E2001426000E152219AE06D0030E1612186C32
:1003F200191ED8B0192A010E1A6E050E1A18D8B491
:1004020012D01A50020D010EF324F66E030EF420E0
:10041200F76E0900F550185C0900F5501958D8A07C
:1004220002D01A2AEAD716C013F0030E1316D8B454
:1004320008D00DC0D9FF0EC0DAFF2D0EDF6E0D4AB7
:100442000E2A1AC017F029D01750020D010EF324FC
:10045200F66E030EF420F76E0900F5CF03F00A00E2
:10046200F5CF04F018C001F019C002F0BAEC03F0A5
:1004720001C008F002C009F0000E0B6E0A0E0A6EEF
:100482002EEC04F00850300F1A6E0DC0D9FF0EC0CA
:10049200DAFF1AC0DFFF0D4A0E2A17061728D8A462
:1004A200D3D70FC0F6FF10C0F7FF0F4A102A08007B
:1004B200F5CF1AF01A50D8A468D70DC0D9FF0EC0D4
:1004C200DAFF000EDF6E1200010EB2EC04F02F6EA6
:1004D200230E2F18D8A41200000E1C6E000E1B6EE5
:1004E2001CBE06D01C500FE1080E1B5CD8B00BD00E
:1004F200250E1B24D96E000E1C20DA6E000EDF6E54
:100502001B4A1C2AEDD7000E1C6E000E1B6E000E3D
:10051200B2EC04F02F6E240E2F18D8B41200580E2D
:100522002F18D8A409D00B0E076E030E086ECBEC61
:1005320002F0FE0E216E0BD02F50D8B4E8D7250E54
:100542001B24D96E000E1C20DA6E2FC0DFFF1CBEEA
:1005520015D01C5004E1080E1B5CD8A00FD06D0E04
:10056200076E030E086ECBEC02F00B0E076E030E45
:10057200086ECBEC02F0FE0E216E02D01B4A1C2A42
:1005820000F000F000F0230E026E280E016E80ECE7
:1005920004F0BDD7000E0C6E000E0B6E000E0E6E38
:1005A200000E0D6E07C001F008C002F0E3EC03F08C
:1005B20001C00BF002C00CF0000E0E6E000E0D6EAC
:1005C20020D00D500724096E0E5008200A6E09C073
:1005D200F6FF0AC0F7FFF86A020EF76403D00800BC
:1005E200F55005D0F6CFE9FFF7CFEAFFEF50A6ECC2
:1005F20004F0000E026E640E016E80EC04F00D4AEF
:100602000E2A0B500D5C0E50800A096E0C50800AA7
:100612000958D8A0D6D70A0EA6EC04F0000E026E36
:10062200640E016E80EC04F01200540E2518D8A45A
:1006320009D0380E076E030E086ECBEC02F0010EE5
:10064200216E1200530E2518D8A411D0450E26187B
:10065200D8A40DD0540E2718D8A409D04B0E076E7B
:10066200030E086ECBEC02F0020E216E1200460E53
:100672002518D8A411D0490E2618D8A40DD04E0E94
:100682002718D8A409D0220E076E030E086ECBECF1
:1006920002F0FE0E216E1200FE0E216E1200000EFE
:1006A200926E000E936E000E946E9568720ED36E6B
:1006B2009B0ECB6E060ECA6E2F0E6F6E000E7F6EF5
:1006C200C40E7B6E090E7A6EC40E7D6E090E7C6EB0
:1006D200800E7E6E000E016E000E026E120E036E12
:1006E2007A0E046E000E056E250E076E800E066EE3
:1006F200000E69EC04F065EC02F016EC03F096ECE7
:1007020004F0230E026E280E016E80EC04F0F3D783
:100712005D0E076E030E086ECBEC02F0230E026E26
:10072200280E016E80EC04F065EC02F02D0E016ED5
:10073200000E026E250E036E000E046E000E066E93
:10074200040E056E0CEC04F0250E0D6E000E0E6EFE
:100752007B0E0F6E030E106E2DC011F02EC012F024
:10076200C1EC01F0250E076E000E086ECBEC02F014
:100772001200000E066E000E056E03500410D8B46F
:100782001CD0010E076E04D0D89003360436072A17
:1007920004AEFAD7D890053606360350015C0450F1
:1007A2000258D8A005D00350015E0450025A0580B9
:1007B200D89004320332072EEDD705C001F006C0EF
:1007C20002F0120001C005F002C006F002D0054A94
:1007D200062A05C0F6FF06C0F7FFF86A020EF764A4
:1007E20003D00800F55005D0F6CFE9FFF7CFEAFFB6
:1007F200EF500009D8A4EBD701C003F002C004F007
:10080200031E041E034A042A05500324016E0650E7
:100812000420026E120003C009F004C00AF001C0F5
:1008220007F002C008F010D009C0D9FF0AC0DAFFF1
:10083200DF500B6E094A0A2A07C0D9FF08C0DAFF47
:100842000BC0DFFF074A082A0506D8A006060528BE
:10085200EBE10628D8B41200E7D70A500B10D8B43F
:1008620018D0010E0C6E04D0D8900A360B360C2A22
:100872000BAEFAD70A50085C0B500958D8A004D026
:100882000A50085E0B50095AD8900B320A320C2ECD
:10089200F1D708C008F009C009F01200700EF66E18
:1008A200090EF76E000EF86E0900F5CF2FF0090061
:1008B200F5CF30F00900F5CF31F000EE1BF0140E49
:1008C200EE6AE806FDE1000EF86E000150EF03F05B
:1008D200086E949C948E0AD0AA96000EAA6E330ECD
:1008E200AF6E240EAC6E900EAB6E12000850000A72
:1008F200D8B4F2D7010AD8B41200030A1200000ECB
:10090200056E000E046E000E056E000E046E02D01F
:10091200044A052A0150045C0550800A036E025005
:10092200800A0358D8B01200F3D703D089EC03F041
:1009320005D02150010AD8B4F9D7030A2050D8B4FF
:1009420002D08082120080921200066E9EA8FED70C
:1009520006C0ADFF030E026EE80E016E80EC04F0DD
:1009620012009EAAFED7AECF1FF01F5012007A05CA
:010972000183
:020000040020DA
:08000000FFFFFFFFFFFFFFFF00
:020000040030CA
:0E000000FFC8013E3C9D85FF0FC00FE00F4082
:00000001FF
